:020000040800F2
:10000000100C0020D500000869040008D90300087E
:1000100000000000000000000000000000000000E0
:1000200000000000000000000000000007060008BB
:1000300000000000000000006B040008E10600085A
:10004000E7000008E7000008E7000008E7000008F4
:10005000E7000008E7000008E7000008E7000008E4
:10006000E7000008E7000008E7000008E7000008D4
:10007000E7000008E7000008E7000008E7000008C4
:10008000E7000008E700000800000000E7000008A3
:10009000E7000008E7000008E7000008E7000008A4
:1000A000E7000008E7000008E7000008E700000894
:1000B000E700000800000000E70000080000000062
:1000C0000348854600F026F8004800470508000868
:1000D000100C00200448804704480047FEE7FEE774
:1000E000FEE7FEE7FEE7FEE7E5060008C1000008C0
:1000F00003460B439B0703D009E008C9121F08C041
:10010000042AFAD203E00B780370401C491C521EEB
:10011000F9D27047064C0125064E05E0E36807CC8E
:100120002B430C3C98471034B442F7D3FFF7CCFF75
:100130000C0C00082C0C00080149C8607047000036
:100140000020024030B5044604250B20000400F0D6
:10015000E3F80546042D17D10C4800690221084335
:100160000A4908610846446100694021084307497B
:1001700008610B20000400F0CFF805460348006931
:100180000221884301490861284630BD0020024011
:1001900004200D49C968C907C90F002901D00120F1
:1001A00010E00949C96810221140002901D002203D
:1001B00008E00549C96804221140002901D0032044
:1001C00000E00420704700000020024070B50546A2
:1001D0002C4609E02046FFF7B5FF042802D10002B3
:1001E000241801E0012070BD02488442F2D90020A9
:1001F000F9E7000000FC000810B500F035F80146F2
:100200000120C043884310BD10B500F073F83520BD
:10021000FFF792FF10BD0000F8B504460E461746E2
:10022000002500BF15E0AA00B158206800F02CF8A6
:1002300004280BD120680068A9007158884201D0B9
:100240000220F8BD2068001D206001E00120F8E7D1
:100250006D1CBD4203D2206802498842E3D90020C8
:10026000EFE70000FBFF00080148006A704700004C
:100270000020024003480069012149030843014965
:10028000086170470020024078B506460C460425F8
:10029000002000900B20000400F03EF80546042DDD
:1002A00024D11348006901210843114908613480B1
:1002B0000B20000400F030F80546042D10D1B01CCE
:1002C0000090200C009908800B20000400F024F816
:1002D000054607480069400840000549086105E0F7
:1002E000034800694008400001490861284678BD7C
:1002F000002002400548006980210840002804D001
:1003000003480249486003484860704700200240A3
:1003100023016745AB89EFCD10B503460424FFF7F1
:1003200037FF044603E0FFF733FF04465B1E012C52
:1003300001D1002BF7D1002B00D10524204610BDA0
:10034000F0B50A4600210023002400BF3DE001254E
:100350008D402B4615681D402C469C4234D11579A2
:10036000012D02D01579022D16D185684F00032684
:10037000BE40B543856055794E00B540866835432B
:100380008560858801268E40B5438580858896796D
:100390008E40B6B23543858005684F000326BE40C7
:1003A000B543056015794E00B540066835430560D4
:1003B000C5684F000326BE40B543C560D5794E00E1
:1003C000B540C6683543C560491C1029BFD3F0BD90
:1003D000018570478161704700BFFEE77CB51E480C
:1003E0000190FFF711FFFFF707FF002803D001205E
:1003F0001A49086002E000201849086017480068A0
:10040000012802D1FFF736FF24E01348FFF7DEFE94
:10041000002400251AE000260DE0FF2001300090A6
:1004200030020F49431800222146052000F0CAF986
:10043000601CC4B2761C042EEFD300F0B7FAFF2282
:100440000132084901A8FFF7E7FE6D1C3C2DE2D3FD
:1004500000F096F97CBD00000010000808000020A4
:10046000100000201004002070477047002905D0BC
:10047000054A52690243044B5A6104E0024A526938
:100480008243014B5A61704700100240002905D099
:10049000054AD2690243044BDA6104E0024AD26998
:1004A0008243014BDA61704700100240002905D0F9
:1004B000054A12690243044B1A6104E0024A1269B8
:1004C0008243014B1A61704700100240002905D099
:1004D000054AD2680243044BDA6004E0024AD2685B
:1004E0008243014BDA6070470010024008B50146B4
:1004F00000200090044800908800009A8018009026
:100500000098006808BD000050280040002904D071
:10051000028840231A43028003E00288014B1A40FC
:1005200002807047BFFF0000014608890322520283
:100530001040704710B504460B48844208D1012191
:100540008014FFF7C3FF0021A014FFF7BFFF0AE0EC
:100550000648844207D101210014FFF7A7FF0021BC
:100560002014FFF7A3FF10BD003001400038004009
:100570000246002013890B40002B01D0012000E02F
:100580000020704710B500220288C1239B011A4049
:100590000B88CC892343CC8823430C8923434C8983
:1005A00023438C8923431A4302808288084B1A40D4
:1005B0008B881A4382800B8A03820288054B1A407B
:1005C0004B881A430280838B034C2340838310BDE6
:1005D000FFF00000FBFF0000FFF7000001460022D3
:1005E0000A460C32107870478288034B1A4082808A
:1005F00082880A4382807047FFEF00000022024693
:100600000C321170704770470CB5002001900090BB
:10061000314800680121090408432F49086000BFE0
:100620002D48006801214904084000900198401CB1
:1006300001900098002804D1052109020198884200
:10064000EED125480068012149040840002802D065
:100650000120009001E0002000900098012839D18D
:1006600011201E4908601C4840681B494860084624
:1006700040684860084640683F210904884316499D
:10068000486008464068112109040843124948603F
:10069000084600680121090608430F49086000BFA9
:1006A0000D4800680121490608400028F8D00A4892
:1006B0004068800880000849486008464068022178
:1006C00008430549486000BF034840680C210840C2
:1006D0000828F9D10CBD00000010024000200240A3
:1006E0007047000010B51B480068012108431949F4
:1006F000086008464068184908401649486008469E
:10070000006816490840134908600846006801213E
:10071000890488430F490860084640683F2109045E
:1007200088430C4948600846C06A00090001C86255
:100730000846006BFF215431884306490863084688
:10074000406B40084000486300208860FFF75CFF72
:1007500010BD0000001002400CB8FFF8FFFFF6FECD
:1007600002E008C8121F08C1002AFAD1704770477A
:10077000002001E001C1121F002AFBD170470000D8
:1007800010B50C4800680C4908400121490788420F
:100790000FD10848406809490860084600680849C0
:1007A00008600449086880F3088800BF04480068AE
:1007B000804710BD001000080000FE2F0000002040
:1007C00004000020FFB581B00D4616461F4600F01C
:1007D00091F8032000F0D2F8019800F0CFF82846F5
:1007E00000F0CCF8304600F0C9F8002403E000F037
:1007F00095F83855641C0A988442F8D300F084F8C0
:1008000005B0F0BD8CB00121C804FFF72FFE002118
:1008100068460172C1721020019001A93048FFF7AB
:100820008FFD0020FFF762FE2E4908600846006831
:100830002D49884250D101218803FFF727FE01216D
:100840008804FFF713FE02216846017603214176F2
:1008500000218176C17607204003059005A9234831
:10086000FFF76EFD012168460174032141740021E8
:100870008174C1740120C002039003A91B48FFF7D3
:100880005FFD0121C9021948FFF7A4FD1848FFF7D1
:1008900051FE002168468183FF210531C183072174
:1008A0000902018400214184818401214902C1841B
:1008B000002101854185818507A90D48FFF762FE6A
:1008C000012109030A48FFF78FFE01210848FFF7BD
:1008D0001DFEFFF783FD01E0FFF752FF00BFFEE7BB
:1008E000000800480C000020AAAAAAAA0004004898
:1008F0000038004010B50121C9020248FFF768FD29
:1009000010BD00000004004810B50121C9020248D2
:10091000FFF760FD10BD00000004004870B5002422
:1009200000E0641C322CFCD302E01348FFF756FEB3
:100930001148FFF7F9FD0028F7D100BF02210E484A
:10094000FFF716FE0028F9D000210B48FFF756FEEE
:1009500000BF80210848FFF70BFE0128F9D000BF37
:1009600001210548FFF704FE0028F9D00248FFF7EF
:1009700035FE0546284670BD0038004010B50446D7
:1009800000BF02210848FFF7F3FD0028F9D02146F7
:100990000548FFF733FE00BF80210348FFF7E8FD5D
:1009A0000128F9D010BD00000038004010B5C0B0DB
:1009B000FF2201324F496846FFF79AFB002420E0EE
:1009C000A0006946085C4C49095CA000401C6A46CE
:1009D000105C494A105C00020918A000801C6A469D
:1009E000105C454A105C00040918A000C01C6A464F
:1009F000105C414A105C00060818A1003F4A5050A4
:100A0000641C402CDCD3002422E0A0006946095C71
:100A10003B48415CA000401C6A46125C3848805C40
:100A200000020918A000801C6A46125C3448805CF1
:100A300000040918A000C01C6A46125C3048805CA3
:100A4000000609182046403080002C4A1150641CD2
:100A5000402CDAD3002422E0A0006946095C294832
:100A6000415CA000401C6A46125C2648805C000283
:100A70000918A000801C6A46125C2248805C0004B1
:100A80000918A000C01C6A46125C1E48805C000663
:100A90000918204680308000184A1150641C402CF0
:100AA000DAD3002422E0A0006946085C1649095CFC
:100AB000A000401C6A46105C134A105C0002091832
:100AC000A000801C6A46105C0F4A105C00040918E4
:100AD000A000C01C6A46105C0B4A105C0006091896
:100AE0002046C0308000054A1150641C402CDAD3E7
:100AF00040B010BD0C0B00081000002010040020B6
:100B00001001002010020020100300201301020336
:100B10000405060C080D180B07090E0F1011120022
:100B2000141516170A191A1B1C271E2C20212229FE
:100B30002425261D28232A2B1F2D2E2F30313E3908
:100B40003435363738333A3B3C3D323F4041FE4343
:100B50004445514748494A4B4C4D4E4F50465253DD
:100B60005455565758595A5B5C5D655F60616263C6
:100B7000645E666768696A6B6C6D6E6F70717273C4
:100B80007475767778ED7A7E7C7D7B7F8081828D2F
:100B900084858A878889868B8C838E8F9091D59364
:100BA0009B95969798999A94FA9D9E9FA0A1F6A3DB
:100BB000A4A5A6A7A8A9B9ABACADAEAFB0B1B2B36E
:100BC000B4B5B6F0B8AABABBBCBDBEBFC0C1C2C343
:100BD000C4C5C6C7C8C9CACBCCCDCECFD0D1D2D35D
:100BE000D492DBD7D8D9DAD6DCDDDEDFE0E1E2E390
:100BF000E4E5E6E7E8E9EAEBEC79FFEFB7F1F9F3D2
:100C0000F4F5A2F7F8F29CFBFCFD42EE2C0C000878
:100C10000000002010000000600700083C0C0008E5
:100C200010000020000C0000700700080000000009
:0C0C3000000000000000000000000000B8
:04000005080000C12E
:00000001FF
